:1000000072C000009EC000009CC000009AC00000AA
:1000100098C0000096C0000094C0000092C000008C
:1000200090C000008EC000008CC000008AC000009C
:1000300088C0000086C0000084C0000082C00000AC
:1000400080C000007EC000007CC000007AC00000BC
:1000500078C0000076C0000074C00000EFC200004D
:1000600070C00000B5C200008AC200006AC0000073
:1000700068C0000066C0000064C0000062C00000EC
:1000800060C000005EC000005CC000005AC00000FC
:1000900058C0000056C0000054C0000052C000000C
:1000A00050C000004EC000004CC000004AC000001C
:1000B00048C0000046C0000044C0000042C000002C
:1000C00040C000003EC000003CC000003AC000003C
:1000D00038C0000036C0000034C0000032C000004C
:1000E00030C00000680311241FBECFEFD1E2DEBF95
:1000F000CDBF00E00CBF23E0A6E4B2E001C01D923A
:10010000A633B207E1F712E0A0E0B2E0E8E1FBE0DD
:1001100000E00BBF02C007900D92A634B107D9F7DB
:1001200010E0C3E7D0E000E005C021970109802F6F
:10013000FE01E4D4C237D10780E00807B1F707D346
:10014000E9C45ECFE3E5F2E0A089B18982E08C9357
:10015000A485B5851C92A685B7858FEC8C93108EEF
:10016000A489B58986E08C93A289B3898C9180613A
:100170008C93A289B3898C9188608C93A289B3896E
:100180008C9180688C930288F389E02D80818F7D2B
:1001900080830895CF92DF92EF92FF920F931F9387
:1001A000CF93DF936C017A018B01C0E0D0E0CE15D4
:1001B000DF0581F0D8016D918D01D601ED91FC91A3
:1001C0000190F081E02DC6011995892B11F021963F
:1001D000EECF7E01C701DF91CF911F910F91FF906C
:1001E000EF90DF90CF900895089580E090E008951B
:1001F000FC01538D448D252F30E0842F90E0821B2D
:10020000930B541710F0CF96089501970895FC01B1
:10021000918D828D981761F0828DDF01A80FB11D3D
:100220005D968C91928D9F5F9F73928F90E0089561
:100230008FEF9FEF0895FC01918D828D981731F01B
:10024000828DE80FF11D858D90E008958FEF9FEF6F
:100250000895FC01918D228D892F90E0805C9F4F45
:10026000821B91098F739927089583E592E0F1DF4E
:1002700021E0892B09F420E0822F0895FC01848D70
:10028000DF01A80FB11DA35ABF4F2C91848D90E0C0
:1002900001968F739927848FA689B7892C93A0899B
:1002A000B1898C91837080648C93938D848D981325
:1002B00006C00288F389E02D80818F7D80830895B8
:1002C000EF92FF920F931F93CF93DF93EC0181E0A6
:1002D000888F9B8D8C8D981305C0E889F989808162
:1002E00085FD25C0F62E0B8D10E00F5F1F4F0F739D
:1002F0001127E02E8C8DE8120BC00FB607FCFACF49
:10030000E889F989808185FFF5CFCE01B7DFF2CF8B
:100310008B8DFE01E80FF11DE35AFF4FF0829FB76E
:10032000F8940B8FEA89FB89808180620AC09FB7AD
:10033000F894EE89FF896083E889F9898081837068
:10034000806480839FBF81E090E0DF91CF911F9117
:100350000F91FF90EF900895CF93DF93EC01888D7C
:100360008823C1F0EA89FB89808185FD05C0A889C1
:10037000B9898C9186FD0EC00FB607FCF5CF808140
:1003800085FFF2CFA889B9898C9185FFEDCFCE0189
:1003900075DFE8CFDF91CF91089580E090E0892B61
:1003A00019F063DF811125C080E090E0892B41F0D6
:1003B00080E090E0892B21F00E94000081111CC098
:1003C00080E090E0892B41F080E090E0892B21F0E3
:1003D0000E940000811113C080E090E0892BA1F001
:1003E00080E090E0892B81F00E94000081110AC01A
:1003F00008950E940000D8CF0E940000E1CF0E9423
:100400000000EACF0C94000008953FB7F894809163
:100410004B0290914C02A0914D02B0914E0226B534
:10042000A89B05C02F3F19F00196A11DB11D3FBF2C
:10043000BA2FA92F982F8827820F911DA11DB11DBA
:10044000BC01CD0142E0660F771F881F991F4A95B6
:10045000D1F708958F929F92AF92BF92CF92DF9281
:10046000EF92FF926B017C01D0DF4B015C01C11464
:10047000D104E104F104E9F0C8DFDC01CB01881903
:100480009909AA09BB09883E9340A105B10578F3F3
:1004900021E0C21AD108E108F10888EE880E83E055
:1004A000981EA11CB11CC114D104E104F10421F770
:1004B000DECFFF90EF90DF90CF90BF90AF909F90F6
:1004C0008F9008952FB7F894609147027091480279
:1004D0008091490290914A022FBF0895009761F0E0
:1004E000FC0101900020E9F73197AF01481B590B3F
:1004F000BC0183E592E04ECE80E090E008958F92BB
:100500009F92AF92BF920F931F93CF93DF93CDB77C
:10051000DEB7A1970FB6F894DEBF0FBECDBF19A20C
:10052000423008F44AE08E010F5D1F4F842E912C5B
:10053000A12CB12CA5019401BFD2E62FB901CA01AB
:1005400001501109EA3014F4E05D01C0E95CD80102
:10055000EC93232B242B252B69F7C801BFDFA19631
:100560000FB6F894DEBF0FBECDBFDF91CF911F91C4
:100570000F91BF90AF909F908F900895C7D21F9218
:100580000F920FB60F9211240BB60F922F933F9339
:100590004F935F936F937F938F939F93AF93BF938B
:1005A000EF93FF9383E592E069DEFF91EF91BF91B6
:1005B000AF919F918F917F916F915F914F913F91FB
:1005C0002F910F900BBE0F900FBE0F901F9018959C
:1005D0001F920F920FB60F9211240BB60F922F930A
:1005E0008F939F93EF93FF93E0916302F0916402E6
:1005F0008081E0916902F0916A0282FD12C09081CF
:1006000080916C028F5F8F7320916D02821751F081
:10061000E0916C02F0E0ED5AFD4F958F80936C02F3
:1006200001C08081FF91EF919F918F912F910F9049
:100630000BBE0F900FBE0F901F9018951F920F9238
:100640000FB60F9211242F933F938F939F93AF93E5
:10065000BF938091470290914802A0914902B091C6
:100660004A023091460223E0230F2D3720F40196F1
:10067000A11DB11D05C026E8230F0296A11DB11DC5
:10068000209346028093470290934802A093490228
:10069000B0934A0280914B0290914C02A0914D027E
:1006A000B0914E020196A11DB11D80934B02909313
:1006B0004C02A0934D02B0934E02BF91AF919F9117
:1006C0008F913F912F910F900FBE0F901F90189513
:1006D000E3E5F2E01382128288EE93E0A0E0B0E05E
:1006E00084839583A683B78384E092E0918380839B
:1006F00085EC90E09587848784EC90E097878687E7
:1007000080EC90E0918B808B81EC90E0938B828BDE
:1007100082EC90E0958B848B86EC90E0978B868BB7
:10072000118E128E138E148EE0EFF2E01682178275
:1007300010861186128613861486158616861786ED
:10074000108A118A128A138A148A158A0895789455
:1007500084B5826084BD84B5816084BD85B58260C6
:1007600085BD85B5816085BD80916E008160809377
:100770006E001092810080918100826080938100E0
:1007800080918100816080938100809180008160F0
:10079000809380008091B10084608093B10080914B
:1007A000B00081608093B00080919100826080935E
:1007B00091008091910081608093910080919000E0
:1007C0008160809390008091A10082608093A1005D
:1007D0008091A10081608093A1008091A000816040
:1007E0008093A000809121018260809321018091FB
:1007F000210181608093210180912001816080939B
:10080000200180917A00846080937A0080917A0040
:10081000826080937A0080917A00816080937A0070
:1008200080917A00806880937A001092C1001092C3
:100830003203109233031092340310923503109256
:10084000F2021092F3021092F4021092F5023ADED4
:100850006B017C014B015C0128EB820E2BE0921EA8
:10086000A11CB11C2FDE6C157D058E059F0528F09F
:1008700086169706A806B906A8F768EE73E080E02A
:1008800090E0E8DD5FDC1EDE6093F2027093F3021D
:100890008093F4029093F50282E192E01FDE12DE73
:1008A0006B017C014B015C013AE0830E911CA11CA1
:1008B000B11C08DE6C157D058E059F0528F0861697
:1008C0009706A806B906A8F781E0809306033ADCEC
:1008D00084EF882E99249394A12CB12CF3DD672BFF
:1008E000682B692B39F4EEDD6230710581059105C5
:1008F00008F4CFC0E7DDC0904F02D0905002E090E6
:100900005102F09052026C157D058E059F0540F452
:1009100060934F0270935002809351029093520261
:10092000C0904F02D0905002E0905102F0905202DD
:100930009B01AC012C193D094E095F0969017A013F
:100940003AEFC316D104E104F10408F4A2C06093A5
:100950004F02709350028093510290935202809202
:10096000FE029092FF02A0920003B0920103109247
:100970000203109203031092040310920503809166
:10098000F6029091F702A091F802B091F9028093DB
:10099000FA029093FB02A093FC02B093FD0292DD59
:1009A0006093F6027093F7028093F8029093F90235
:1009B00089DD6093F2027093F3028093F4029093C6
:1009C000F50280DD6B017C0183E292E087DD4AE085
:1009D00061E070E080E090E092DD8AE292E07EDD0E
:1009E0004AE0C701B6018BDD8CE292E077DD8091B1
:1009F000F6029091F702A091F802B091F902A701D6
:100A00009601281B390B4A0B5B0BCA01B9014AE05E
:100A100076DD8CE292E062DD8091F6029091F70241
:100A2000A091F802B091F902C090FA02D090FB02B6
:100A3000E090FC02F090FD02BC01CD016C197D0933
:100A40008E099F094AE05BDD8EE292E047DD3ADDE8
:100A50004AE055DD80E392E041DD87E392E03EDD50
:100A600031DD6B017C012B013C0135E0430E511C53
:100A7000611C711C27DD6C157D058E059F05B0F48A
:100A800021DD6093F6027093F7028093F802909351
:100A9000F9028AE392E022DD87E392E01FDD64EF52
:100AA00071E080E090E0D6DC78DC18CF461657067F
:100AB00068067906F8F6E4CFA1E21A2EAA1BBB1B42
:100AC000FD010DC0AA1FBB1FEE1FFF1FA217B3071A
:100AD000E407F50720F0A21BB30BE40BF50B661F30
:100AE000771F881F991F1A9469F7609570958095F4
:100AF00090959B01AC01BD01CF010895EE0FFF1F42
:100B0000881F8BBF0790F691E02D199481E090E04B
:080B1000F89400C0F894FFCF37
:100B1800000000006001CA00F800AC0129010701CB
:100B28001B01564D4450565F317C315F564D445041
:100B3800560A00564D4450455F003A323A007C0050
:100B48005F564D445045000D0A0048656C6C6F2097
:060B5800776F726C64006F
:00000001FF
