:1000000026C1000052C1000050C100004EC10000D6
:100010004CC100004AC1000048C1000046C10000B8
:1000200044C1000042C1000040C100003EC10000C8
:100030003CC100003AC1000038C1000036C10000D8
:1000400034C1000032C1000030C100002EC10000E8
:100050002CC100002AC1000028C10000EAC4000031
:1000600024C10000B0C4000085C400001EC100000F
:100070001CC100001AC1000018C1000016C1000018
:1000800014C1000012C1000010C100000EC1000028
:100090000CC100000AC1000008C1000006C1000038
:1000A00004C1000002C1000000C10000FEC0000049
:1000B000FCC00000FAC00000F8C00000F6C000005C
:1000C000F4C00000F2C00000F0C00000EEC000006C
:1000D000ECC00000EAC00000E8C00000E6C000007C
:1000E000E4C00000AB02AE029D02A102A702E5023D
:1000F000B202B602BC02C002C402CA02CE02D202DE
:10010000E502D802DC02E00276037B0380038A0367
:1001100094030D049E03A603AE03B803C203CC03ED
:10012000DB03E5030D04EF03F903030400002100E2
:10013000240027002A002D003000330001010000B8
:10014000040107010A0100002200250028002B00FD
:100150002E003100340002010000050108010B01EE
:1001600000000A0B02090C0D0E0807030401000031
:10017000000000000000000000000000000000007F
:10018000000000000000000000000000121110003C
:10019000000000000000000000000000000000005F
:1001A00000000000000000002000230026002900BD
:1001B0002C002F003200000100000301060109019C
:1001C00005050505070508080808020202020A0AD3
:1001D00008080404040401010101010101010303F1
:1001E000030303030303040707070C0C0C0C0C0C9C
:1001F0000C0C0202020206060606060606060B0B99
:100200000B0B0B0B0B0B01021020200808102040D9
:1002100010204080020102010804020101020408CA
:100220001020408080402010080402018004020158
:1002300080402010080402010804020101020408A1
:10024000102040800102040810204080A8051124DD
:100250001FBECFEFD1E2DEBFCDBF00E00CBF12E08A
:10026000A0E0B2E0EAEBF0E100E00BBF02C00790D3
:100270000D92A834B107D9F722E0A8E4B2E001C09A
:100280001D92AE3FB207E1F711E0C7E2D1E000E016
:1002900005C021970109802FFE0101D7C632D10781
:1002A00080E00807B1F7EED406C7AACECF92DF925E
:1002B000EF92FF920F931F93CF93DF936C017A011C
:1002C0008B01C0E0D0E0CE15DF0581F0D8016D9143
:1002D0008D01D601ED91FC910190F081E02DC601D8
:1002E0001995892B11F02196EECF7E01C701DF9180
:1002F000CF911F910F91FF90EF90DF90CF900895D5
:10030000089580E090E00895FC01538D448D252FE1
:1003100030E0842F90E0821B930B541710F0CF969F
:10032000089501970895FC01918D828D981761F0D1
:10033000828DDF01A80FB11D5D968C91928D9F5F1C
:100340009F73928F90E008958FEF9FEF0895FC01C7
:10035000918D828D981731F0828DE80FF11D858D7A
:1003600090E008958FEF9FEF0895FC01918D228D0D
:10037000892F90E0805C9F4F821B91098F73992792
:10038000089581E592E0F1DF21E0892B09F420E076
:10039000822F0895FC01848DDF01A80FB11DA35A9F
:1003A000BF4F2C91848D90E001968F739927848F95
:1003B000A689B7892C93A089B1898C9183708064B8
:1003C0008C93938D848D981306C00288F389E02D59
:1003D00080818F7D80830895EF92FF920F931F930A
:1003E000CF93DF93EC0181E0888F9B8D8C8D9813E8
:1003F00005C0E889F989808185FD25C0F62E0B8D21
:1004000010E00F5F1F4F0F731127E02E8C8DE81245
:100410000BC00FB607FCFACFE889F989808185FF08
:10042000F5CFCE01B7DFF2CF8B8DFE01E80FF11DC6
:10043000E35AFF4FF0829FB7F8940B8FEA89FB894C
:10044000808180620AC09FB7F894EE89FF8960833B
:10045000E889F98980818370806480839FBF81E00F
:1004600090E0DF91CF911F910F91FF90EF90089551
:10047000CF93DF93EC01888D8823C1F0EA89FB8953
:10048000808185FD05C0A889B9898C9186FD0EC043
:100490000FB607FCF5CF808185FFF2CFA889B98917
:1004A0008C9185FFEDCFCE0175DFE8CFDF91CF9145
:1004B000089580E090E0892B19F063DF811125C059
:1004C00080E090E0892B41F080E090E0892B21F0E2
:1004D0000E94000081111CC080E090E0892B41F057
:1004E00080E090E0892B21F00E940000811113C070
:1004F00080E090E0892BA1F080E090E0892B81F0F2
:100500000E94000081110AC008950E940000D8CF07
:100510000E940000E1CF0E940000EACF0C9400008E
:10052000089590E0FC013197E231F10508F04DC0EB
:100530008827EE58FF4F8F4FB2C5809180008F778C
:1005400003C0809180008F7D80938000089580910A
:100550008000877FF9CF84B58F7702C084B58F7D07
:1005600084BD08958091B0008F7703C08091B00062
:100570008F7D8093B0000895809190008F7707C0A1
:10058000809190008F7D03C080919000877F809341
:10059000900008958091A0008F7707C08091A000FF
:1005A0008F7D03C08091A000877F8093A000089575
:1005B000809120018F7707C0809120018F7D03C03B
:1005C00080912001877F8093200108951F93CF930E
:1005D000DF93282F30E0F901E05AFE4F8491F901B2
:1005E000EA5FFD4FD491F901E054FE4FC491CC2352
:1005F000B9F0162F811195DFEC2FF0E0EE0FFF1F01
:10060000EA5BFE4FA591B4919FB7F894111104C015
:100610008C91D095D82302C0EC91DE2BDC939FBF48
:10062000DF91CF911F910895CF93DF9390E0FC016C
:10063000EA5FFD4F2491FC01E054FE4F8491882332
:1006400061F190E0880F991FFC01E45DFE4FC591B8
:10065000D491FC01EA5BFE4FA591B491611109C0F0
:100660009FB7F8948881209582238883EC912E236C
:100670000BC0623061F49FB7F8948881322F3095B7
:1006800083238883EC912E2B2C939FBF06C08FB7BA
:10069000F894E8812E2B28838FBFDF91CF910895A6
:1006A0001F93CF93DF93182FEB0161E0BDDF2097FD
:1006B00011F460E004C0CF3FD10531F461E0812F37
:1006C000DF91CF911F9182CFE12FF0E0E05AFE4FF2
:1006D000E4918E2F90E0FC013197E231F10508F0B2
:1006E0009CC08827EC57FF4F8F4FD9C484B58068D2
:1006F00084BDC7BD97C084B5806284BDC8BD92C0AB
:1007000080918000806880938000D0938900C0939E
:10071000880088C080918000806280938000D093A0
:100720008B00C0938A007EC0809180008860809397
:100730008000D0938D00C0938C0074C08091B00075
:1007400080688093B000C093B3006CC08091B0000B
:1007500080628093B000C093B40064C08091900028
:10076000806880939000D0939900C09398005AC0FD
:1007700080919000806280939000D0939B00C09302
:100780009A0050C080919000886080939000D09330
:100790009D00C0939C0046C08091A000806880931B
:1007A000A0008091A0008F7B8093A000D093A9002F
:1007B000C093A80037C08091A00080628093A00001
:1007C000D093AB00C093AA002DC08091A000886098
:1007D0008093A000D093AD00C093AC0023C0809163
:1007E0002001806880932001D0932901C0932801C3
:1007F00019C080912001806280932001D0932B0149
:10080000C0932A010FC0809120018860809320014D
:10081000D0932D01C0932C0105C0C038D1050CF038
:100820004DCF47CFDF91CF911F91089560E084E0D5
:10083000CDDE60E085E0CADE60E082E0C7DE60E039
:1008400083E0C4CE009761F0FC0101900020E9F73D
:100850003197AF01481B590BBC0181E592E026CDD1
:1008600080E090E008958F929F92AF92BF920F9395
:100870001F93CF93DF93CDB7DEB7A1970FB6F89450
:10088000DEBF0FBECDBF19A2423008F44AE08E0190
:100890000F5D1F4F842E912CA12CB12CA50194012A
:1008A000DCD3E62FB901CA0101501109EA3014F472
:1008B000E05D01C0E95CD801EC93232B242B252BB0
:1008C00069F7C801BFDFA1960FB6F894DEBF0FBE6F
:1008D000CDBFDF91CF911F910F91BF90AF909F90AF
:1008E0008F9008950F931F9390E0FC01EA5FFD4FF6
:1008F000A491FC01E054FE4FE491F0E0EE0FFF1FE5
:10090000EA55FE4F859194918A019B013F704A2FD1
:100910006A2FD9D0611571058105910549F0DC0177
:10092000CB010196A11DB11DBC01CD019F7003C07B
:1009300060E070E0CB011F910F910895CF93DF939A
:10094000EC0161E0888142DE83E290E00197F1F7FB
:1009500060E088813BDE40E157E260E070E0898141
:10096000C1DFCB01009711F48FEF9FEFDF91CF91A3
:1009700008959DD31F920F920FB60F9211240BB6BC
:100980000F922F933F934F935F936F937F938F9328
:100990009F93AF93BF93EF93FF9381E592E0FADCCF
:1009A000FF91EF91BF91AF919F918F917F916F9147
:1009B0005F914F913F912F910F900BBE0F900FBE03
:1009C0000F901F9018951F920F920FB60F9211243F
:1009D0000BB60F922F938F939F93EF93FF93E0911A
:1009E0006102F09162028081E0916702F0916802F9
:1009F00082FD12C0908180916A028F5F8F73209177
:100A00006B02821751F0E0916A02F0E0EF5AFD4F5D
:100A1000958F80936A0201C08081FF91EF919F9131
:100A20008F912F910F900BBE0F900FBE0F901F90C4
:100A300018951F920F920FB60F9211242F933F9388
:100A40008F939F93AF93BF9380914D0290914E02ED
:100A5000A0914F02B091500230914C0223E0230F3D
:100A60002D3720F40196A11DB11D05C026E8230FE6
:100A70000296A11DB11D20934C0280934D029093CC
:100A80004E02A0934F02B093500280914802909181
:100A90004902A0914A02B0914B020196A11DB11DDD
:100AA0008093480290934902A0934A02B0934B026C
:100AB000BF91AF919F918F913F912F910F900FBE5A
:100AC0000F901F901895CF92DF92EF92FF920F93A5
:100AD0001F93E82FF92F05C0015011092109310991
:100AE00061F1908196239417B9F305C00150110963
:100AF0002109310911F1908196239413F7CFC12C6C
:100B0000D12CE12CF12C0AC08FEFC81AD80AE80AC0
:100B1000F80A0C151D052E053F0579F08081862306
:100B2000841791F36C2D7D2D8E2D9F2D1F910F918C
:100B3000FF90EF90DF90CF90089560E070E080E04C
:100B400090E01F910F91FF90EF90DF90CF9008956C
:100B5000CF93DF93E1E5F2E01382128288EE93E017
:100B6000A0E0B0E084839583A683B78385E092E01C
:100B70009183808385EC90E09587848784EC90E076
:100B80009787868780EC90E0918B808B81EC90E05A
:100B9000938B828B82EC90E0958B848B86EC90E03B
:100BA000978B868B118E128E138E148ECEEED2E022
:100BB00086E1888387E1898361E086E135DD60E055
:100BC00087E132DD88E18A8389E18B8361E088E116
:100BD0002BDD60E089E128DD8AE18C838BE18D8368
:100BE00061E08AE121DD60E08BE11EDD80E38E8340
:100BF00084E38F8382E3888785E3898783E38A8719
:100C000081E38B8761E084E30FDD61E082E30CDD4B
:100C100061E083E309DD61E081E306DD61E080E31B
:100C200003DD60E085E300DD60E084E3CFDC60E0CD
:100C300082E3CCDC61E080E3C9DC1E861F8661E0D4
:100C400086E0F2DC60E086E0C1DC61E084E0ECDCC0
:100C500060E084E0BBDC61E085E0E6DC60E085E04C
:100C6000B5DC61E082E0E0DC60E082E0AFDC61E026
:100C700083E0DADC60E083E0A9DC62E088E0DF9119
:100C8000CF91D2CC789484B5826084BD84B58160E4
:100C900084BD85B5826085BD85B5816085BD809147
:100CA0006E00816080936E001092810080918100BF
:100CB00082608093810080918100816080938100B7
:100CC000809180008160809380008091B100846079
:100CD0008093B1008091B00081608093B0008091DA
:100CE0009100826080939100809191008160809357
:100CF0009100809190008160809390008091A1008C
:100D000082608093A1008091A10081608093A10006
:100D10008091A00081608093A00080912101826079
:100D20008093210180912101816080932101809134
:100D3000200181608093200180917A0084608093FB
:100D40007A0080917A00826080937A0080917A00A4
:100D5000816080937A0080917A00806880937A0025
:100D60001092C10063DDE0916102F091620282E0C5
:100D70008083E0915D02F0915E021082E0915F025B
:100D8000F09160028FEC808310926902E09165021D
:100D9000F091660286E08083E0916302F091640244
:100DA000808180618083E0916302F09164028081A0
:100DB00088608083E0916302F091640280818068A2
:100DC0008083E0916302F091640280818F7D808353
:100DD0003324339498E6892E91E0992E28ECA22EA4
:100DE00021E0B22ECBE8D1E081E090910002911198
:100DF00080E08093000283E192E024DD6091FB02B9
:100E000070E080E090E04AE02EDD87E292E01ADDBB
:100E10008091FD028093FC02F4018491EEE0F2E007
:100E2000F490F501E490EE2099F081117ADBEE2D3B
:100E3000F0E0EE0FFF1FEA55FE4FA591B4918C91A3
:100E4000F82231E020E009F430E0832F922F02C035
:100E500080E090E0F1E08F2781708093FD0260E0F8
:100E60008091F402B3DB60E08091F502AFDB61E0DA
:100E70008091F602ABDBCE010197F1F760E0809143
:100E8000F802A4DB60E08091F902A0DBCE010197BB
:100E9000F1F748E853E160E070E08091F70222DD6D
:100EA0006B017C0161E08091F80290DB61E0809150
:100EB000F9028CDBCE010197F1F744EC59E060E0D8
:100EC00070E08091F7020EDD2B013C0160E0809123
:100ED000F8027CDB61E08091F90278DBCE010197BA
:100EE000F1F746EA5EE060E070E08091F702FADC3C
:100EF00097018601095C1109210931090B3B124058
:100F000021053105E0F4EDE24E1AE1E05E0A6108E8
:100F10007108F7E54F16F2E05F066104710478F49A
:100F20002B013C012DE2421A21E0520A61087108AE
:100F300047E5441642E0540661047104C8F0E5E652
:100F4000CE1AD108E108F108F3E8CF16F3E0DF0686
:100F5000E104F10478F0DC01CB0185569109A10987
:100F6000B10983389340A105B10530F012E005C006
:100F700013E003C010E001C011E060E08091F502D1
:100F800025DB60E08091F60221DB61E08091F402D4
:100F90001DDB8091FC02811104C08091FD02811152
:100FA00002C0113029F41092FA021092FB022FC0F5
:100FB000123021F484E08093FB0229C0111105C096
:100FC0006FEA70E086E06CDB03C060E086E0FEDA8A
:100FD0008091FB02882321F08130C9F427DC17C0FF
:100FE0006FE870E084E05CDB60E085E0EFDA6FE8FA
:100FF00070E082E055DB60E083E0E8DA80EF92E0C9
:101000009DDC8C31924018F411DC3092FB028AE2B4
:1010100092E018DC80EF92E091DCBC0180E090E08F
:101020004AE021DC84E392E00DDC8EEE92E086DC87
:10103000BC0180E090E04AE016DC8DE392E002DC47
:1010400082EF92E07BDCBC0180E090E04AE00BDCC8
:1010500087E292E0F7DB2DDAC7CEA1E21A2EAA1BB7
:10106000BB1BFD010DC0AA1FBB1FEE1FFF1FA21758
:10107000B307E407F50720F0A21BB30BE40BF50B55
:10108000661F771F881F991F1A9469F760957095DE
:10109000809590959B01AC01BD01CF010895EE0FA5
:1010A000FF1F881F8BBF0790F691E02D199481E0F8
:0A10B00090E0F89400C0F894FFCF20
:1010BA000100000000EC01560184013802B50193D9
:1010CA0001A70165737461646F206175746F6D6146
:1010DA007469636F3A20000D0A0066726F6E74615C
:1010EA006C3A20002E206C6566743A20002E20721D
:0810FA00696768743A200000E8
:00000001FF
