:1000000026C1000054C1000052C1000050C10000D0
:100010004EC100004CC100004AC1000048C10000B0
:1000200046C1000044C1000042C1000040C10000C0
:100030003EC100003CC100003AC1000038C10000D0
:1000400036C1000034C1000032C1000030C10000E0
:100050002EC100002CC100002AC100000DC6000006
:1000600026C10000D3C50000A8C5000020C10000C3
:100070001EC100001CC100001AC1000018C1000010
:1000800016C1000014C1000012C1000010C1000020
:100090000EC100000CC100000AC1000008C1000030
:1000A00006C1000004C1000002C1000000C1000040
:1000B000FEC00000FCC00000FAC00000F8C0000054
:1000C000F6C00000F4C00000F2C00000F0C0000064
:1000D000EEC00000ECC00000EAC00000E8C0000074
:1000E000E6C00000AE02B102A002A402AA02E80229
:1000F000B502B902BF02C302C702CD02D102D502C6
:10010000E802DB02DF02E3029C03A103A603B003C3
:10011000BA033304C403CC03D403DE03E803F203BD
:1001200001040B04330415041F04290400002100FA
:10013000240027002A002D003000330001010000B8
:10014000040107010A0100002200250028002B00FD
:100150002E003100340002010000050108010B01EE
:1001600000000A0B02090C0D0E0807030401000031
:10017000000000000000000000000000000000007F
:10018000000000000000000000000000121110003C
:10019000000000000000000000000000000000005F
:1001A00000000000000000002000230026002900BD
:1001B0002C002F003200000100000301060109019C
:1001C00005050505070508080808020202020A0AD3
:1001D00008080404040401010101010101010303F1
:1001E000030303030303040707070C0C0C0C0C0C9C
:1001F0000C0C0202020206060606060606060B0B99
:100200000B0B0B0B0B0B01021020200808102040D9
:1002100010204080020102010804020101020408CA
:100220001020408080402010080402018004020158
:1002300080402010080402010804020101020408A1
:10024000102040800102040810204080CB061124B9
:100250001FBECFEFD1E2DEBFCDBF00E00CBF12E08A
:10026000A0E0B2E0E0E7F5E100E00BBF02C00790DC
:100270000D92A638B107D9F723E0A6E8B2E001C095
:100280001D92A034B207E1F711E0C7E2D1E000E02F
:1002900006C021970109802FFE010E94AA0AC632DA
:1002A000D10780E00807A9F718D60C94B60AA8CEA3
:1002B000CF92DF92EF92FF920F931F93CF93DF9332
:1002C0006C017A018B01C0E0D0E0CE15DF0581F032
:1002D000D8016D918D01D601ED91FC910190F081D5
:1002E000E02DC6011995892B11F02196EECF7E01E4
:1002F000C701DF91CF911F910F91FF90EF90DF9099
:10030000CF900895089580E090E00895FC01538D0A
:10031000448D252F30E0842F90E0821B930B5417DF
:1003200010F0CF96089501970895FC01918D828D6C
:10033000981761F0828DDF01A80FB11D5D968C9139
:10034000928D9F5F9F73928F90E008958FEF9FEF44
:100350000895FC01918D828D981731F0828DE80F00
:10036000F11D858D90E008958FEF9FEF0895FC01BA
:10037000918D228D892F90E0805C9F4F821B910987
:100380008F73992708958FE892E0F1DF21E0892BA0
:1003900009F420E0822F0895FC01848DDF01A80F6D
:1003A000B11DA35ABF4F2C91848D90E001968F739D
:1003B0009927848FA689B7892C93A089B1898C91BC
:1003C000837080648C93938D848D981306C002880B
:1003D000F389E02D80818F7D80830895EF92FF92D5
:1003E0000F931F93CF93DF93EC0181E0888F9B8D58
:1003F0008C8D981305C0E889F989808185FD25C019
:10040000F62E0B8D10E00F5F1F4F0F731127E02E9C
:100410008C8DE8120BC00FB607FCFACFE889F9897A
:10042000808185FFF5CFCE01B7DFF2CF8B8DFE0146
:10043000E80FF11DE35AFF4FF0829FB7F8940B8F3E
:10044000EA89FB89808180620AC09FB7F894EE89AF
:10045000FF896083E889F989808183708064808363
:100460009FBF81E090E0DF91CF911F910F91FF90AE
:10047000EF900895CF93DF93EC01888D8823C1F02E
:10048000EA89FB89808185FD05C0A889B9898C919D
:1004900086FD0EC00FB607FCF5CF808185FFF2CF39
:1004A000A889B9898C9185FFEDCFCE0175DFE8CFA2
:1004B000DF91CF91089580E090E0892B19F063DF00
:1004C000811125C080E090E0892B41F080E090E030
:1004D000892B21F00E94000081111CC080E090E077
:1004E000892B41F080E090E0892B21F00E940000F0
:1004F000811113C080E090E0892BA1F080E090E0B2
:10050000892B81F00E94000081110AC008950E9489
:100510000000D8CF0E940000E1CF0E940000EACF87
:100520000C940000089590E0FC013197E231F10550
:1005300008F04EC08827EE58FF4F8F4F0C94AA0A40
:10054000809180008F7703C0809180008F7D8093A1
:100550008000089580918000877FF9CF84B58F77E0
:1005600002C084B58F7D84BD08958091B0008F77DF
:1005700003C08091B0008F7D8093B000089580917A
:1005800090008F7707C0809190008F7D03C080918D
:100590009000877F8093900008958091A0008F77CE
:1005A00007C08091A0008F7D03C08091A000877F4D
:1005B0008093A0000895809120018F7707C08091DB
:1005C00020018F7D03C080912001877F80932001CF
:1005D0000895CF93DF93E8E6F1E08491EEE0F2E056
:1005E000D491E8ECF1E0C491CC2389F081119BDF38
:1005F000EC2FF0E0EE0FFF1FEA55FE4FA591B491EE
:10060000EC91ED2381E090E021F480E002C080E0F5
:1006100090E0DF91CF9108951F93CF93DF93282F20
:1006200030E0F901E05AFE4F8491F901EA5FFD4F95
:10063000D491F901E054FE4FC491CC23B9F0162FA8
:10064000811171DFEC2FF0E0EE0FFF1FEA5BFE4F30
:10065000A591B4919FB7F894111104C08C91D095D5
:10066000D82302C0EC91DE2BDC939FBFDF91CF91AA
:100670001F910895CF93DF9390E0FC01EA5FFD4F57
:100680002491FC01E054FE4F8491882361F190E0B5
:10069000880F991FFC01E45DFE4FC591D491FC01C8
:1006A000EA5BFE4FA591B491611109C09FB7F89420
:1006B0008881209582238883EC912E230BC06230A1
:1006C00061F49FB7F8948881322F30958323888313
:1006D000EC912E2B2C939FBF06C08FB7F894E88126
:1006E0002E2B28838FBFDF91CF9108951F93CF9337
:1006F000DF93182FEB0161E0BDDF209711F460E07C
:1007000004C0CF3FD10531F461E0812FDF91CF915B
:100710001F9182CFE12FF0E0E05AFE4FE4918E2F3F
:1007200090E0FC013197E231F10508F09CC0882788
:10073000EC57FF4F8F4F0EC784B5806884BDC7BD8F
:1007400097C084B5806284BDC8BD92C0809180008E
:10075000806880938000D0938900C093880088C00F
:1007600080918000806280938000D0938B00C09342
:100770008A007EC080918000886080938000D09342
:100780008D00C0938C0074C08091B000806880930D
:10079000B000C093B3006CC08091B00080628093C1
:1007A000B000C093B40064C08091900080688093D2
:1007B0009000D0939900C09398005AC08091900007
:1007C000806280939000D0939B00C0939A0050C0A9
:1007D00080919000886080939000D0939D00C0939A
:1007E0009C0046C08091A00080688093A00080910A
:1007F000A0008F7B8093A000D093A900C093A80095
:1008000037C08091A00080628093A000D093AB009D
:10081000C093AA002DC08091A00088608093A000A2
:10082000D093AD00C093AC0023C0809120018068BC
:1008300080932001D0932901C093280119C0809191
:100840002001806280932001D0932B01C0932A0164
:100850000FC080912001886080932001D0932D01EA
:10086000C0932C0105C0C038D1050CF04DCF47CF47
:10087000DF91CF911F9108952FB7F89460918B026B
:1008800070918C0280918D0290918E022FBF0895FD
:1008900060E084E0C1DE61E970E085E027DF60E0D0
:1008A00082E0BADE61E970E083E020CF60E084E0BE
:1008B000B3DE60E085E0B0DE60E082E0ADDE6FEFE9
:1008C00070E083E013CF60E084E0A6DE6FEF70E0BD
:1008D00085E00CDF60E082E09FDE60E083E09CCE9C
:1008E00060E084E099DE60E085E096DE60E082E032
:1008F00093DE60E083E090CE009761F0FC01019010
:100900000020E9F73197AF01481B590BBC018FE874
:1009100092E0CECC80E090E008958F929F92AF92CB
:10092000BF920F931F93CF93DF93CDB7DEB7A197FD
:100930000FB6F894DEBF0FBECDBF19A2423008F447
:100940004AE08E010F5D1F4F842E912CA12CB12CFB
:10095000A5019401CED5E62FB901CA0101501109B4
:10096000EA3014F4E05D01C0E95CD801EC93232B7C
:10097000242B252B69F7C801BFDFA1960FB6F89489
:10098000DEBF0FBECDBFDF91CF911F910F91BF9002
:10099000AF909F908F900895AFCFCF93DF93ACDF50
:1009A000EC0187E192E0A8DF8C0F9D1FDF91CF91D2
:1009B00008950F931F9390E0FC01EA5FFD4FA4910F
:1009C000FC01E054FE4FE491F0E0EE0FFF1FEA550A
:1009D000FE4F859194918A019B013F704A2F6A2FA7
:1009E00095D1611571058105910549F0DC01CB01B7
:1009F0000196A11DB11DBC01CD019F7003C060E037
:100A000070E0CB011F910F910895CF93DF93EC011C
:100A100061E0888101DE83E290E00197F1F760E018
:100A20008881FADD40E157E260E070E08981C1DF52
:100A3000CB01009711F48FEF9FEFDF91CF910895D5
:100A400091D54F925F926F927F928F929F92AF92C9
:100A5000BF92CF92DF92EF92FF920F931F93CF93AB
:100A6000DF93EC0160E08981D7DD61E08A81D4DD2C
:100A70000BE811E0C8010197F1F760E08C81CCDD53
:100A800060E08D81C9DDC8010197F1F748E853E1C5
:100A900060E070E08B818DDF6B017C0161E08C8117
:100AA000BBDD61E08D81B8DDC8010197F1F744EC51
:100AB00059E060E070E08B817CDF4B015C0160E01D
:100AC0008C81AADD61E08D81A7DDC8010197F1F776
:100AD00046EA5EE060E070E08B816BDF2B013C0159
:100AE00060E0898199DD60E08A8196DD8AE192E0AB
:100AF00053DF4AE0C701B60110DF80E292E04CDF2D
:100B00004AE0C501B40109DF89E292E045DF4AE02D
:100B1000C301B20102DF87E192E0EEDE85E6C81A8A
:100B2000D108E108F10887E7C81685E0D806E10496
:100B3000F104D0F485E6881A9108A108B1088BE485
:100B4000881684E09806A104B10418F585E6481AD1
:100B500051086108710883E8481683E0580661046B
:100B60007104B8F483E018C08FE3C81686E0D80695
:100B7000E104F10470F085E6481A51086108710833
:100B800083E8481683E058066104710420F481E08C
:100B900003C080E001C082E0DF91CF911F910F91EF
:100BA000FF90EF90DF90CF90BF90AF909F908F908D
:100BB0007F906F905F904F9008951F920F920FB6A5
:100BC0000F9211240BB60F922F933F934F935F9385
:100BD0006F937F938F939F93AF93BF93EF93FF9305
:100BE0008FE892E0D9DBFF91EF91BF91AF919F9198
:100BF0008F917F916F915F914F913F912F910F90C6
:100C00000BBE0F900FBE0F901F9018951F920F9262
:100C10000FB60F9211240BB60F922F938F939F93C1
:100C2000EF93FF93E0919F02F091A0028081E09109
:100C3000A502F091A60282FD12C090818091A802C7
:100C40008F5F8F732091A902821751F0E091A80263
:100C5000F0E0E157FD4F958F8093A80201C080819D
:100C6000FF91EF919F918F912F910F900BBE0F905D
:100C70000FBE0F901F9018951F920F920FB60F92F4
:100C800011242F933F938F939F93AF93BF938091A2
:100C90008B0290918C02A0918D02B0918E023091C6
:100CA0008A0223E0230F2D3720F40196A11DB11DE8
:100CB00005C026E8230F0296A11DB11D20938A02CC
:100CC00080938B0290938C02A0938D02B0938E023E
:100CD0008091860290918702A0918802B09189024A
:100CE0000196A11DB11D8093860290938702A09367
:100CF0008802B0938902BF91AF919F918F913F91EC
:100D00002F910F900FBE0F901F901895CF92DF92EA
:100D1000EF92FF920F931F93E82FF92F05C0015018
:100D200011092109310961F1908196239417B9F3D2
:100D300005C0015011092109310911F19081962353
:100D40009413F7CFC12CD12CE12CF12C0AC08FEFDA
:100D5000C81AD80AE80AF80A0C151D052E053F0521
:100D600079F080818623841791F36C2D7D2D8E2D53
:100D70009F2D1F910F91FF90EF90DF90CF900895DE
:100D800060E070E080E090E01F910F91FF90EF90A5
:100D9000DF90CF900895CF93DF93EFE8F2E01382D6
:100DA000128288EE93E0A0E0B0E084839583A6836E
:100DB000B78389E092E09183808385EC90E095870A
:100DC000848784EC90E09787868780EC90E0918B15
:100DD000808B81EC90E0938B828B82EC90E0958B02
:100DE000848B86EC90E0978B868B118E128E138EFF
:100DF000148ECCE2D3E086E1888387E1898361E0C9
:100E000086E138DC60E087E135DC88E18A8389E1CE
:100E10008B8361E088E12EDC60E089E12BDC8AE1F4
:100E20008C838BE18D8361E08AE124DC60E08BE1DF
:100E300021DC80E38E8384E38F8382E3888785E3EC
:100E4000898783E38A8781E38B8761E084E312DC0F
:100E500061E082E30FDC61E083E30CDC61E081E3CD
:100E600009DC61E080E306DC60E085E303DC60E050
:100E700084E3D2DB60E082E3CFDB61E080E3CCDBC4
:100E80001E861F86188A198A1A8A1B8A61E086E0E4
:100E9000F1DB60E086E0C0DB61E084E0EBDB60E09A
:100EA00084E0BADB61E085E0E5DB60E085E0B4DBAF
:100EB00061E082E0DFDB60E082E0AEDB61E083E006
:100EC000D9DB60E083E0A8DB62E088E0D3DB81E08F
:100ED0008C871D86DF91CF910895789484B58260C8
:100EE00084BD84B5816084BD85B5826085BD85B5CE
:100EF000816085BD80916E00816080936E0010924C
:100F000081008091810082608093810080918100C6
:100F10008160809381008091800081608093800057
:100F20008091B10084608093B1008091B0008160B5
:100F30008093B000809191008260809391008091B5
:100F400091008160809391008091900081608093F6
:100F500090008091A10082608093A1008091A10007
:100F600081608093A1008091A00081608093A000A7
:100F70008091210182608093210180912101816013
:100F800080932101809120018160809320018091D4
:100F90007A00846080937A0080917A0082608093E6
:100FA0007A0080917A00816080937A0080917A0043
:100FB000806880937A001092C10080917B00877FC7
:100FC00080937B0085E480937C0080917A0080642C
:100FD00080937A0080917A0086FDFCCF6091780042
:100FE0008091790070E0782B072E000C880B990B0C
:100FF000611571058105910509F046D271DCE0911A
:101000009F02F091A00282E08083E0919B02F09128
:101010009C021082E0919D02F0919E028FEC8083F1
:101020001092A702E091A302F091A40286E08083CF
:10103000E091A102F091A202808180618083E09121
:10104000A102F091A202808188608083E091A102D8
:10105000F091A202808180688083E091A102F091EA
:10106000A20280818F7D808311E082E0C82ED12C86
:10107000E12CF12C81E090910002911180E08093AD
:101080000002D0913803D13009F0FCC080913B03BD
:1010900080933A039EDA21E0892B09F020E0209327
:1010A0003B0382E393E0CDDCC82F81E392E074DC64
:1010B000C13019F489E392E00EC0C11103C08EE380
:1010C00092E009C0C23019F482E492E004C0C33057
:1010D00019F488E492E061DC80913A03811104C044
:1010E00080913B03811102C0C13039F4F9DB60E02B
:1010F00086E092DA10923803AAC0C230A9F4809137
:1011000039038430C1F0ECDB60E086E085DA84E00E
:1011100080933903B1DB60933C0370933D0380936C
:101120003E0390933F03DCC0C11105C06FEA70E03D
:1011300086E0DCDA03C060E086E06EDA8091390395
:10114000823009F46DC028F4882351F0813009F110
:10115000C7C0833009F47EC0843009F47DC0C0C0AC
:1011600061E970E084E0C2DA60E085E055DA61E9C7
:1011700070E082E0BBDA60E083E04EDA8EE293E07A
:1011800044DC883E934008F0ABC0AADB10933903DF
:10119000A7C02FD1A701960180D1672B682B692B9F
:1011A00069F080E393E031DC8B389240F8F48CE214
:1011B00093E02BDC8B3D924028F106C08CE293E05B
:1011C00024DC8B3D924060F057DB60933C037093CE
:1011D0003D0380933E0390933F0375DB82E01DC087
:1011E00080E393E012DC8B38924060F045DB609343
:1011F0003C0370933D0380933E0390933F0356DB83
:1012000083E00BC039DB60933C0370933D03809314
:101210003E0390933F033CDB84E08093390360C03E
:1012200052DB2ADB80903C0390903D03A0903E036C
:10123000B0903F03DC01CB0188199909AA09BB09C9
:1012400081399140A105B10508F44AC049DB1092EB
:10125000390346C02BDBE5CF1BDB0EDB80903C0364
:1012600090903D03A0903E03B0903F03DC01CB0182
:1012700088199909AA09BB0981329340A105B105D2
:1012800078F183CF82E393E0DCDBC82F81E392E047
:1012900083DBC13019F489E392E00EC0C11103C0B1
:1012A0008EE392E009C0C23019F482E492E004C0F7
:1012B000C33019F488E492E070DB80913B038093A3
:1012C0003A0387D921E0009709F020E020933B03FF
:1012D00020913A03211104C0892B11F41093380393
:1012E000CBDA8EE492E058DB6D2F70E080E090E086
:1012F0004AE013DB87E192E0FFDA8BE592E04CDB1A
:101300006091390370E080E090E04AE006DB87E11D
:1013100092E0F2DA89E692E03FDB8EE293E075DB61
:10132000BC0180E090E04AE0F8DA83E792E034DB49
:101330008CE293E06ADBBC0180E090E04AE0EDDA09
:101340008CE792E029DB80E393E05FDBBC0180E087
:1013500090E04AE0E2DA87E192E0CEDA8DDAABD8CB
:1013600089CE8F929F92AF92BF92CF92DF92EF92EF
:10137000FF92CF93DF93EC01688179818A819B8111
:10138000611571058105910521F464E279ED8BE524
:1013900097E02DE133EF41E050E07FD049015A0161
:1013A0009B01AC01A7EAB1E494D06B017C01ACEEE7
:1013B000B4EFA501940199D0DC01CB018C0D9D1DEA
:1013C000AE1DBF1DB7FF03C00197A109B0488883B8
:1013D0009983AA83BB83BC01CD019F77DF91CF9115
:1013E000FF90EF90DF90CF90BF90AF909F908F9045
:1013F00008958F929F92AF92BF92CF92DF92EF9219
:10140000FF9260910102709102028091030290911B
:101410000402611571058105910521F464E279EDFD
:101420008BE597E02DE133EF41E050E036D0490104
:101430005A019B01AC01A7EAB1E44BD06B017C01DE
:10144000ACEEB4EFA501940150D0DC01CB018C0DC2
:101450009D1DAE1DBF1DB7FF03C00197A109B04878
:101460008093010290930202A0930302B0930402BE
:10147000BC01CD019F77FF90EF90DF90CF90BF90A0
:10148000AF909F908F900895609301027093020235
:1014900080930302909304020895052E97FB16F49F
:1014A00000940FD057FD05D024D007FC02D046F49D
:1014B00008C050954095309521953F4F4F4F5F4F55
:1014C000089590958095709561957F4F8F4F9F4FB0
:1014D000089531D0A59F900DB49F900DA49F800DCD
:1014E000911D11240895B7FFF4CFF3DF821B930BF6
:1014F0000895A1E21A2EAA1BBB1BFD010DC0AA1F55
:10150000BB1FEE1FFF1FA217B307E407F50720F06C
:10151000A21BB30BE40BF50B661F771F881F991FE7
:101520001A9469F760957095809590959B01AC0130
:10153000BD01CF010895A29FB001B39FC001A39F39
:10154000700D811D1124911DB29F700D811D1124FC
:10155000911D0895EE0FFF1F881F8BBF0790F69116
:10156000E02D199481E090E0F89400C0F894FFCF4A
:10157000010100000000000000EE01580186013A60
:1015800002B7019501A9010D0A007265643A2000B5
:1015900020677265656E3A200020626C75653A209E
:1015A00000636F6C6F723A2000424C554500524503
:1015B0004400424C41434B00574849544500636145
:1015C00072726F206D6F64653A2000636172726F92
:1015D0002073746174653A200066726F6E74616C7A
:1015E0003A20002E206C6566743A20002E20726925
:0615F0006768743A200058
:00000001FF
